:030000000206DB1A
:0C06DB00787FE4F6D8FD75812702072225
:10089200C0F9A4B0999282F8809001020408102055
:1008A2004080C0F9A4B0999282F88090BF88C6C0F7
:0B08B200F9A4B0999282F88090BFFF7B
:0C08CD00012100011D00011E3B0122174B
:10046C0012052812052875A0C09008A1E493F58008
:10047C0075A0FF9008BBE493F5801205281205289F
:10048C0075A0C090089EE493F58075A0FF9008BB02
:10049C00E493F58012052812052875A0C09008A0D9
:1004AC00E493F58075A0FFE51E75F00A84E5F090E5
:1004BC0008B193F5807F0112052812052875A0C09C
:1004CC0090089FE493F58075A0FFE51E75F00A84F3
:1004DC009008B193F5807F0112052812052875A0AC
:1004EC00C090089CE493F58075A0FFE52275F00A96
:1004FC00849008B193F5807F0112052812052875A8
:10050C00A0C090089DE493F58075A0FFE52275F0DE
:0C051C000A84E5F09008B193F5807F019F
:10052800E4FDFCC3ED9FEE6480F8EC648098501401
:100538007B4D7A03EB1B70011AEB4A70F70DBD0077
:04054800010C80DF43
:01054C00228C
:1007C800E5A0541F4480F5A07580FF53A01FE5A045
:1007D800541F44A0F5A05380AF53A01FE5A0541F99
:1007E80044C0F5A07580FF53A01FE5A0541F44E046
:0907F800F5A07580FF53A01F223B
:08062E008B238A2489258D2607
:10063600E4F527C374079527FFE526A80708800277
:10064600C313D8FC30E04AE5A0541F44E0F5A0757A
:1006560080FFE5A0541F44C0F5A0AF277401A8078A
:10066600088002C333D8FCF5807F017E001205287E
:10067600E5A0541F44E0F5A0AB23AA24A9258527AD
:10068600827583001208659008A493F5807F018027
:1006960034E5A0541F44E0F5A07580FFE5A0541F83
:1006A60044C0F5A0AF277401A807088002C333D859
:1006B600FCF5807F017E00120528E5A0541F44E06A
:1006C600F5A07580FF1205280527E527D394075066
:0406D60003020639DC
:0106DA0022FD
:100838008F08A9057F017E00120528E5A0541F44F2
:10084800C0F5A0E50890089C93F580E5A074FFF535
:0D085800A0E990089293F5807F0102052829
:10000E00751700751801751900751A32751B007574
:10001E001C3220B0177F327E0012052820B00D054D
:10002E0022E522B41803E4F52230B0FD20B3137F8D
:10003E00327E0012052820B309D52203752218300E
:10004E00B3FDE51A151AAE19700215194E7003029A
:10005E00011375A0C090089CE493F58075A0FFE590
:10006E002275F00A849008B193F5807F017E00120C
:10007E00050812052875A0C09008A1E493F58075B7
:10008E00A0FF9008BBE493F5801205281205287591
:10009E00A0C090089EE493F58075A0FF9008BBE485
:1000AE0093F58012052812052875A0C09008A3E4C8
:1000BE0093F58075A0FFE51D12051A12052875A08F
:1000CE00C09008A2E493F58075A0FFE51D75F00AB7
:1000DE008412052012052875A0C090089FE493F5A0
:1000EE008075A0FFE51E75F00A8412052012052802
:1000FE0075A0C09008A0E493F58075A0FFE51E12D0
:10010E00051A020050751900751A32E51C151CAE41
:10011E001B7002151B4E70030201EE75A0C09008F5
:10012E009CE493F58075A0FF9008BCE493F5807F66
:10013E00017E0012052875A0C090089DE493F580FD
:10014E0075A0FF9008BCE493F580120528120528CF
:10015E0075A0C09008A1E493F58075A0FF9008BB30
:10016E00E493F58012052812052875A0C090089E0C
:10017E00E493F58075A0FF9008BBE493F58012051B
:10018E002812052875A0C09008A3E493F58075A0E9
:10019E00FFE51D12051A12052875A0C09008A2E4ED
:1001AE0093F58075A0FFE51D75F00A8412052012E7
:1001BE00052875A0C090089FE493F58075A0FFE513
:1001CE001E75F00A8412052012052875A0C090082D
:1001DE00A0E493F58075A0FFE51E12051A02011921
:0601EE00751B00751C32B8
:0101F40022E8
:1001F500751700751802751900751A32751B00758B
:100205001C3220B0177F327E0012052820B00D0564
:100215001EE51EB43C03E4F51E30B0FD20B3137F8C
:10022500327E0012052820B309D51E03751E3C3009
:10023500B3FDE51A151AAE19700215194E700302B1
:1002450002DA75A0C090089FE493F58075A0FFE5DC
:100255001E75F00A849008B193F5807F017E001227
:10026500052875A0C09008A0E493F58075A0FFE56A
:100275001E12051A12052875A0C09008A1E493F571
:100285008075A0FF9008BBE493F580120528120540
:100295002875A0C090089EE493F58075A0FF90088E
:1002A500BBE493F58012052812052875A0C09008B7
:1002B500A3E493F58075A0FFE51D12051A12052824
:1002C50075A0C09008A2E493F58075A0FFE51D1206
:1002D50004D8020237751900751A32E51C151CAED3
:1002E5001B7002151B4E700302038375A0C0900896
:1002F5009FE493F58075A0FF9008BCE493F5807F9B
:10030500017E0012052875A0C09008A3E493F5802E
:1003150075A0FF9008BCE493F58012052812052806
:1003250075A0C09008A1E493F58075A0FF9008BB67
:10033500E493F58012052812052875A0C090089E43
:10034500E493F58075A0FF9008BBE493F580120552
:100355002812052875A0C09008A3E493F58075A020
:10036500FFE51D12051A12052875A0C09008A2E424
:1003750093F58075A0FFE51D1204D80202E0751BF8
:0403850000751C32B1
:010389002251
:10054D00751700751803751900751A32751B00752E
:10055D001C3220B0177F327E0012052820B00D0509
:10056D001DE51DB43C03E4F51D30B0FD20B3137F34
:10057D00327E0012052820B309D51D03751D3C30B0
:10058D00B3FDE51A151AAE19700215194E604375B3
:10059D00A0C09008A2E493F58075A0FFE51D75F04D
:1005AD000A849008B193F5807F017E0012052875AD
:1005BD00A0C09008A3E493F58075A0FFE51D75F02C
:1005CD000A84E5F09008B193F5807F0112046C0266
:1005DD00058F751900751A32E51C151CAE1B7002BE
:1005ED00151B4E603575A0C09008A2E493F580757B
:1005FD00A0FF9008BCE493F5807F017E00120528D2
:10060D0075A0C09008A3E493F58075A0FF9008BC79
:10061D00E493F58012046C0205E5751B00751C3220
:01062D0022AA
:0908E500D2B3D2B2D2B1D2B022DA
:0B08DA00D288D2A8D2AFD28AD2AA22C4
:1008BD00758901758C3C758AAFD2AFD2A9D28C22C5
:0300030002038A6B
:10038A00C0E0C0F0C083C082C0D075D000C000C039
:0B039A0002C003C004C005C006C0077D
:1003A500750900750A00750B00750C00750D007553
:1003B5000E00750F00751032751100751232751328
:1003C5000075140075150075160012054D20B11540
:1003D5007F327E0012052820B10B0516E516700246
:1003E500051530B1FDE515702FE51624FE601204E4
:1003F500702612000E30B10920B2F775130075147E
:10040500001201F520B10875150075160080092048
:10041500B2EF75130075140220B2157F327E0012FB
:10042500052820B20B0514E5147002051330B2FD42
:10043500E5137096E51424FE601204708D1201F523
:1004450030B20920B1F775150075160012000E209F
:10045500B2097513007514000203CF20B1EE7515AE
:07046500007516020203CF2F
:03000B00020801E7
:10080100C0E0C0D0758C3C758AAF0521E521B414D8
:1008110005051D752100E51DB43C05051E751D006E
:10082100E51EB43C0D0522751E00E522B4180375C2
:070831002200D0D0D0E0321C
:100767001207C81208DA1208BD7F017E0012052899
:10077700E51D75F00A84FD7F061208387F017E00AB
:1007870012052812052875A0C09008A3E493F580E8
:1007970075A0FFE51D12051A12052875A0C090085F
:1007A700A112049212052875A0C090089EE493F543
:1007B7008075A0FF9008BBE493F580120528020717
:0107C70070C1
:1006E700020767E493A3F8E493A34003F68001F2BB
:1006F70008DFF48029E493A3F85407240CC8C33314
:10070700C4540F4420C8834004F456800146F6DFE2
:10071700E4800B01020408102040809008CDE47E9D
:10072700019360BCA3FF543F30E509541FFEE493D7
:10073700A360010ECF54C025E060A840B8E493A39E
:10074700FAE493A3F8E493A3C8C582C8CAC583CAC9
:10075700F0A3C8C582C8CAC583CADFE9DEE780BE81
:0108D900001E
:10086500BB010CE58229F582E5833AF583E0225048
:1008750006E92582F8E622BBFE06E92582F8E22292
:0D088500E58229F582E5833AF583E49322AC
:00000001FF
